{
  "_format": "hh-sol-artifact-1",
  "contractName": "AuctionManager",
  "sourceName": "contracts/AuctionManager.sol",
  "abi": [
    {
      "inputs": [],
      "name": "InvalidInitialization",
      "type": "error"
    },
    {
      "inputs": [],
      "name": "NotInitializing",
      "type": "error"
    },
    {
      "inputs": [
        {
          "internalType": "address",
          "name": "owner",
          "type": "address"
        }
      ],
      "name": "OwnableInvalidOwner",
      "type": "error"
    },
    {
      "inputs": [
        {
          "internalType": "address",
          "name": "account",
          "type": "address"
        }
      ],
      "name": "OwnableUnauthorizedAccount",
      "type": "error"
    },
    {
      "anonymous": false,
      "inputs": [
        {
          "indexed": true,
          "internalType": "uint256",
          "name": "tokenId",
          "type": "uint256"
        }
      ],
      "name": "AuctionStarted",
      "type": "event"
    },
    {
      "anonymous": false,
      "inputs": [
        {
          "indexed": true,
          "internalType": "uint256",
          "name": "tokenId",
          "type": "uint256"
        },
        {
          "indexed": true,
          "internalType": "address",
          "name": "winner",
          "type": "address"
        }
      ],
      "name": "AuctionWinnerSet",
      "type": "event"
    },
    {
      "anonymous": false,
      "inputs": [
        {
          "indexed": true,
          "internalType": "address",
          "name": "user",
          "type": "address"
        },
        {
          "indexed": false,
          "internalType": "bool",
          "name": "eligible",
          "type": "bool"
        }
      ],
      "name": "EligibleMinterSet",
      "type": "event"
    },
    {
      "anonymous": false,
      "inputs": [
        {
          "indexed": false,
          "internalType": "uint64",
          "name": "version",
          "type": "uint64"
        }
      ],
      "name": "Initialized",
      "type": "event"
    },
    {
      "anonymous": false,
      "inputs": [
        {
          "indexed": true,
          "internalType": "address",
          "name": "previousOwner",
          "type": "address"
        },
        {
          "indexed": true,
          "internalType": "address",
          "name": "newOwner",
          "type": "address"
        }
      ],
      "name": "OwnershipTransferred",
      "type": "event"
    },
    {
      "inputs": [
        {
          "internalType": "uint256",
          "name": "",
          "type": "uint256"
        }
      ],
      "name": "auctionStarted",
      "outputs": [
        {
          "internalType": "bool",
          "name": "",
          "type": "bool"
        }
      ],
      "stateMutability": "view",
      "type": "function"
    },
    {
      "inputs": [
        {
          "internalType": "uint256",
          "name": "",
          "type": "uint256"
        }
      ],
      "name": "auctionWinners",
      "outputs": [
        {
          "internalType": "address",
          "name": "",
          "type": "address"
        }
      ],
      "stateMutability": "view",
      "type": "function"
    },
    {
      "inputs": [
        {
          "internalType": "uint256[]",
          "name": "tokenIds",
          "type": "uint256[]"
        },
        {
          "internalType": "address[]",
          "name": "winners",
          "type": "address[]"
        }
      ],
      "name": "batchSetAuctionWinners",
      "outputs": [],
      "stateMutability": "nonpayable",
      "type": "function"
    },
    {
      "inputs": [
        {
          "internalType": "address[]",
          "name": "users",
          "type": "address[]"
        },
        {
          "internalType": "bool[]",
          "name": "eligibles",
          "type": "bool[]"
        }
      ],
      "name": "batchSetEligible",
      "outputs": [],
      "stateMutability": "nonpayable",
      "type": "function"
    },
    {
      "inputs": [
        {
          "internalType": "uint256[]",
          "name": "tokenIds",
          "type": "uint256[]"
        }
      ],
      "name": "batchStartAuction",
      "outputs": [],
      "stateMutability": "nonpayable",
      "type": "function"
    },
    {
      "inputs": [
        {
          "internalType": "uint256",
          "name": "tokenId",
          "type": "uint256"
        },
        {
          "internalType": "address",
          "name": "user",
          "type": "address"
        }
      ],
      "name": "canAccessFullFile",
      "outputs": [
        {
          "internalType": "bool",
          "name": "",
          "type": "bool"
        }
      ],
      "stateMutability": "view",
      "type": "function"
    },
    {
      "inputs": [
        {
          "internalType": "address",
          "name": "",
          "type": "address"
        }
      ],
      "name": "eligibleMinters",
      "outputs": [
        {
          "internalType": "bool",
          "name": "",
          "type": "bool"
        }
      ],
      "stateMutability": "view",
      "type": "function"
    },
    {
      "inputs": [
        {
          "internalType": "uint256",
          "name": "maxTokenId",
          "type": "uint256"
        }
      ],
      "name": "getAuctionsWithWinnersCount",
      "outputs": [
        {
          "internalType": "uint256",
          "name": "count",
          "type": "uint256"
        }
      ],
      "stateMutability": "view",
      "type": "function"
    },
    {
      "inputs": [],
      "name": "getEligibleMintersCount",
      "outputs": [
        {
          "internalType": "uint256",
          "name": "",
          "type": "uint256"
        }
      ],
      "stateMutability": "pure",
      "type": "function"
    },
    {
      "inputs": [
        {
          "internalType": "uint256",
          "name": "maxTokenId",
          "type": "uint256"
        }
      ],
      "name": "getStartedAuctionsCount",
      "outputs": [
        {
          "internalType": "uint256",
          "name": "count",
          "type": "uint256"
        }
      ],
      "stateMutability": "view",
      "type": "function"
    },
    {
      "inputs": [
        {
          "internalType": "address",
          "name": "_thesisNFT",
          "type": "address"
        },
        {
          "internalType": "address",
          "name": "initialOwner",
          "type": "address"
        }
      ],
      "name": "initialize",
      "outputs": [],
      "stateMutability": "nonpayable",
      "type": "function"
    },
    {
      "inputs": [
        {
          "internalType": "uint256",
          "name": "tokenId",
          "type": "uint256"
        },
        {
          "internalType": "address",
          "name": "user",
          "type": "address"
        }
      ],
      "name": "isAuctionWinner",
      "outputs": [
        {
          "internalType": "bool",
          "name": "",
          "type": "bool"
        }
      ],
      "stateMutability": "view",
      "type": "function"
    },
    {
      "inputs": [
        {
          "internalType": "address",
          "name": "user",
          "type": "address"
        }
      ],
      "name": "isEligible",
      "outputs": [
        {
          "internalType": "bool",
          "name": "",
          "type": "bool"
        }
      ],
      "stateMutability": "view",
      "type": "function"
    },
    {
      "inputs": [],
      "name": "owner",
      "outputs": [
        {
          "internalType": "address",
          "name": "",
          "type": "address"
        }
      ],
      "stateMutability": "view",
      "type": "function"
    },
    {
      "inputs": [],
      "name": "renounceOwnership",
      "outputs": [],
      "stateMutability": "nonpayable",
      "type": "function"
    },
    {
      "inputs": [
        {
          "internalType": "uint256",
          "name": "tokenId",
          "type": "uint256"
        },
        {
          "internalType": "address",
          "name": "winner",
          "type": "address"
        }
      ],
      "name": "setAuctionWinner",
      "outputs": [],
      "stateMutability": "nonpayable",
      "type": "function"
    },
    {
      "inputs": [
        {
          "internalType": "address",
          "name": "user",
          "type": "address"
        },
        {
          "internalType": "bool",
          "name": "eligible",
          "type": "bool"
        }
      ],
      "name": "setEligible",
      "outputs": [],
      "stateMutability": "nonpayable",
      "type": "function"
    },
    {
      "inputs": [
        {
          "internalType": "address",
          "name": "_thesisNFT",
          "type": "address"
        }
      ],
      "name": "setThesisNFT",
      "outputs": [],
      "stateMutability": "nonpayable",
      "type": "function"
    },
    {
      "inputs": [
        {
          "internalType": "uint256",
          "name": "tokenId",
          "type": "uint256"
        }
      ],
      "name": "startAuction",
      "outputs": [],
      "stateMutability": "nonpayable",
      "type": "function"
    },
    {
      "inputs": [],
      "name": "thesisNFT",
      "outputs": [
        {
          "internalType": "address",
          "name": "",
          "type": "address"
        }
      ],
      "stateMutability": "view",
      "type": "function"
    },
    {
      "inputs": [
        {
          "internalType": "address",
          "name": "newOwner",
          "type": "address"
        }
      ],
      "name": "transferOwnership",
      "outputs": [],
      "stateMutability": "nonpayable",
      "type": "function"
    }
  ],
  "bytecode": "0x60808060405234601557610cc9908161001b8239f35b600080fdfe6080604052600436101561001257600080fd5b60003560e01c8063065de74c146109375780630a2719ab146108a25780631642405d1461083b57806339c2607d146107b6578063485cc955146106435780635ff9f5c7146101f057806366e305fd14610274578063715018a6146105d957806382b992d1146105a55780638da5cb5b1461056f5780638e1a87a1146104c05780639840e85b146103e25780639dba8db814610310578063bfcf274f146102b3578063c5d3f05514610274578063d1fde1e4146101f5578063ef7334b5146101f0578063f2fde38b146101c5578063f363aa3a14610162578063fe0f2379146101395763ff2e96231461010357600080fd5b34610134576020366003190112610134576004356000526002602052602060ff604060002054166040519015158152f35b600080fd5b34610134576000366003190112610134576000546040516001600160a01b039091168152602090f35b34610134576020366003190112610134576000600435815b81811061018c57602083604051908152f35b6000818152600160205260409020546001600160a01b03166101b1575b60010161017a565b916101bd600191610b54565b9290506101a9565b34610134576020366003190112610134576101ee6101e16109a0565b6101e9610bef565b610b79565b005b6109cc565b346101345760203660031901126101345761020e6109a0565b610216610bef565b6001600160a01b0316801561023d576001600160601b0360a01b6000541617600055600080f35b60405162461bcd60e51b815260206004820152600f60248201526e496e76616c6964206164647265737360881b6044820152606490fd5b34610134576020366003190112610134576001600160a01b036102956109a0565b166000526003602052602060ff604060002054166040519015158152f35b34610134576020366003190112610134576000600435815b8181106102dd57602083604051908152f35b80600052600260205260ff604060002054166102fc575b6001016102cb565b91610308600191610b54565b9290506102f4565b346101345761031e36610a41565b9061033760018060a09695961b03600054163314610a93565b610342828514610aef565b60005b84811061034e57005b8061036461035f6001938686610ac9565b610b40565b61036f828888610ac9565b3560005282602052604060002090838060a01b03166001600160601b0360a01b8254161790556103a0818787610ac9565b35828060a01b036103b561035f848888610ac9565b16907f6cf99b5cf49d428ae67b147a071955a0471c4728429f3aa9f91549039e19c63f600080a301610345565b34610134576103f036610a41565b9261040660018060a01b03600054163314610a93565b610411848414610aef565b60005b83811061041d57005b806104696104366104316001948988610ac9565b610b33565b838060a01b0361044a61035f858a89610ac9565b16600052600360205260406000209060ff801983541691151516179055565b61047761035f828786610ac9565b7f1eb9d150200c61dc349051d698e2f6c13d20e1d0c29f9f2a9e13596639d7550f60206104a8610431858b8a610ac9565b926040519315158452858060a01b031692a201610414565b346101345760203660031901126101345760043567ffffffffffffffff8111610134576104f1903690600401610a10565b61050660018060a01b03600054163314610a93565b60005b81811061051257005b806105206001928486610ac9565b35600052600260205260406000208260ff19825416179055610543818486610ac9565b357f1bb96dff6ab5005aff98cdc0cf176bb7d8e0423cb48e02217d35b042cec81e9f600080a201610509565b3461013457600036600319011261013457600080516020610c54833981519152546040516001600160a01b039091168152602090f35b34610134576020366003190112610134576004356000526001602052602060018060a01b0360406000205416604051908152f35b34610134576000366003190112610134576105f2610bef565b600080516020610c5483398151915280546001600160a01b031981169091556000906001600160a01b03167f8be0079c531659141344cd1fd0a4f28419497f9722a3daafe3b4186f6b6457e08280a3005b346101345760403660031901126101345761065c6109a0565b6106646109b6565b90600080516020610c748339815191525460ff8160401c16159267ffffffffffffffff8216801590816107ae575b60011490816107a4575b15908161079b575b5061078a5767ffffffffffffffff198216600117600080516020610c74833981519152556106e3918461075d575b506106db610c25565b6101e9610c25565b60018060a01b03166001600160601b0360a01b600054161760005561070457005b68ff000000000000000019600080516020610c748339815191525416600080516020610c74833981519152557fc7f505b2f371ae2175ee4913f4499e1f2633a7b5936321eed1cdaeb6115181d2602060405160018152a1005b68ffffffffffffffffff19166801000000000000000117600080516020610c7483398151915255846106d2565b63f92ee8a960e01b60005260046000fd5b905015856106a4565b303b15915061069c565b859150610692565b34610134576040366003190112610134576004356107d26109b6565b6107e760018060a01b03600054163314610a93565b600082815260016020526040812080546001600160a01b0319166001600160a01b039390931692831790559091907f6cf99b5cf49d428ae67b147a071955a0471c4728429f3aa9f91549039e19c63f9080a3005b346101345760003660031901126101345760405162461bcd60e51b815260206004820152602860248201527f4e6f7420696d706c656d656e7465643a20757365206f66662d636861696e20616044820152676e616c797469637360c01b6064820152608490fd5b34610134576040366003190112610134576108bb6109a0565b6024359081151590818303610134577f1eb9d150200c61dc349051d698e2f6c13d20e1d0c29f9f2a9e13596639d7550f9161092e60209261090760018060a01b03600054163314610a93565b60018060a01b031694856000526003845260406000209060ff801983541691151516179055565b604051908152a2005b346101345760203660031901126101345760043561096060018060a01b03600054163314610a93565b8060005260026020526040600020600160ff198254161790557f1bb96dff6ab5005aff98cdc0cf176bb7d8e0423cb48e02217d35b042cec81e9f600080a2005b600435906001600160a01b038216820361013457565b602435906001600160a01b038216820361013457565b346101345760403660031901126101345760206109e76109b6565b6004356000908152600183526040908190205490516001600160a01b0392831691909216148152f35b9181601f840112156101345782359167ffffffffffffffff8311610134576020808501948460051b01011161013457565b60406003198201126101345760043567ffffffffffffffff81116101345781610a6c91600401610a10565b929092916024359067ffffffffffffffff821161013457610a8f91600401610a10565b9091565b15610a9a57565b60405162461bcd60e51b81526020600482015260076024820152661393d517d3919560ca1b6044820152606490fd5b9190811015610ad95760051b0190565b634e487b7160e01b600052603260045260246000fd5b15610af657565b60405162461bcd60e51b8152602060048201526015602482015274082e4e4c2f240d8cadccee8d040dad2e6dac2e8c6d605b1b6044820152606490fd5b3580151581036101345790565b356001600160a01b03811681036101345790565b6000198114610b635760010190565b634e487b7160e01b600052601160045260246000fd5b6001600160a01b03168015610bd957600080516020610c5483398151915280546001600160a01b0319811683179091556001600160a01b03167f8be0079c531659141344cd1fd0a4f28419497f9722a3daafe3b4186f6b6457e0600080a3565b631e4fbdf760e01b600052600060045260246000fd5b600080516020610c54833981519152546001600160a01b03163303610c1057565b63118cdaa760e01b6000523360045260246000fd5b60ff600080516020610c748339815191525460401c1615610c4257565b631afcd79f60e31b60005260046000fdfe9016d09d72d40fdae2fd8ceac6b6234c7706214fd39c1cd1e609a0528c199300f0c57e16840df040f15088dc2f81fe391c3923bec73e23a9662efc9c229c6a00a2646970667358221220e809985719477145662ba6d9d4eae107d687bf6e0aebdc82520abe207948e0d664736f6c634300081c0033",
  "linkReferences": {},
  "deployedLinkReferences": {}
}