{
  "_format": "hh-sol-artifact-1",
  "contractName": "Staking",
  "sourceName": "contracts/Staking.sol",
  "abi": [
    {
      "inputs": [],
      "stateMutability": "nonpayable",
      "type": "constructor"
    },
    {
      "inputs": [
        {
          "internalType": "address",
          "name": "target",
          "type": "address"
        }
      ],
      "name": "AddressEmptyCode",
      "type": "error"
    },
    {
      "inputs": [
        {
          "internalType": "address",
          "name": "implementation",
          "type": "address"
        }
      ],
      "name": "ERC1967InvalidImplementation",
      "type": "error"
    },
    {
      "inputs": [],
      "name": "ERC1967NonPayable",
      "type": "error"
    },
    {
      "inputs": [],
      "name": "EnforcedPause",
      "type": "error"
    },
    {
      "inputs": [],
      "name": "ExpectedPause",
      "type": "error"
    },
    {
      "inputs": [],
      "name": "FailedCall",
      "type": "error"
    },
    {
      "inputs": [],
      "name": "InvalidInitialization",
      "type": "error"
    },
    {
      "inputs": [],
      "name": "NotInitializing",
      "type": "error"
    },
    {
      "inputs": [
        {
          "internalType": "address",
          "name": "owner",
          "type": "address"
        }
      ],
      "name": "OwnableInvalidOwner",
      "type": "error"
    },
    {
      "inputs": [
        {
          "internalType": "address",
          "name": "account",
          "type": "address"
        }
      ],
      "name": "OwnableUnauthorizedAccount",
      "type": "error"
    },
    {
      "inputs": [],
      "name": "ReentrancyGuardReentrantCall",
      "type": "error"
    },
    {
      "inputs": [],
      "name": "UUPSUnauthorizedCallContext",
      "type": "error"
    },
    {
      "inputs": [
        {
          "internalType": "bytes32",
          "name": "slot",
          "type": "bytes32"
        }
      ],
      "name": "UUPSUnsupportedProxiableUUID",
      "type": "error"
    },
    {
      "anonymous": false,
      "inputs": [
        {
          "indexed": true,
          "internalType": "address",
          "name": "user",
          "type": "address"
        }
      ],
      "name": "AddressBlacklisted",
      "type": "event"
    },
    {
      "anonymous": false,
      "inputs": [
        {
          "indexed": true,
          "internalType": "address",
          "name": "user",
          "type": "address"
        }
      ],
      "name": "AddressUnblacklisted",
      "type": "event"
    },
    {
      "anonymous": false,
      "inputs": [
        {
          "indexed": false,
          "internalType": "uint256",
          "name": "newPercent",
          "type": "uint256"
        }
      ],
      "name": "DiscountParamsUpdated",
      "type": "event"
    },
    {
      "anonymous": false,
      "inputs": [
        {
          "indexed": true,
          "internalType": "address",
          "name": "by",
          "type": "address"
        }
      ],
      "name": "EmergencyModeActivated",
      "type": "event"
    },
    {
      "anonymous": false,
      "inputs": [
        {
          "indexed": true,
          "internalType": "address",
          "name": "by",
          "type": "address"
        }
      ],
      "name": "EmergencyModeDeactivated",
      "type": "event"
    },
    {
      "anonymous": false,
      "inputs": [
        {
          "indexed": true,
          "internalType": "address",
          "name": "requestor",
          "type": "address"
        },
        {
          "indexed": false,
          "internalType": "uint256",
          "name": "amount",
          "type": "uint256"
        }
      ],
      "name": "EmergencyWithdrawalExecuted",
      "type": "event"
    },
    {
      "anonymous": false,
      "inputs": [
        {
          "indexed": true,
          "internalType": "address",
          "name": "requestor",
          "type": "address"
        }
      ],
      "name": "EmergencyWithdrawalRequested",
      "type": "event"
    },
    {
      "anonymous": false,
      "inputs": [
        {
          "indexed": true,
          "internalType": "address",
          "name": "governance",
          "type": "address"
        }
      ],
      "name": "GovernanceContractSet",
      "type": "event"
    },
    {
      "anonymous": false,
      "inputs": [
        {
          "indexed": false,
          "internalType": "uint64",
          "name": "version",
          "type": "uint64"
        }
      ],
      "name": "Initialized",
      "type": "event"
    },
    {
      "anonymous": false,
      "inputs": [
        {
          "indexed": true,
          "internalType": "bytes32",
          "name": "operationHash",
          "type": "bytes32"
        },
        {
          "indexed": true,
          "internalType": "address",
          "name": "confirmer",
          "type": "address"
        }
      ],
      "name": "OperationConfirmed",
      "type": "event"
    },
    {
      "anonymous": false,
      "inputs": [
        {
          "indexed": true,
          "internalType": "bytes32",
          "name": "operationHash",
          "type": "bytes32"
        }
      ],
      "name": "OperationExecuted",
      "type": "event"
    },
    {
      "anonymous": false,
      "inputs": [
        {
          "indexed": true,
          "internalType": "bytes32",
          "name": "operationHash",
          "type": "bytes32"
        },
        {
          "indexed": true,
          "internalType": "address",
          "name": "proposer",
          "type": "address"
        },
        {
          "indexed": false,
          "internalType": "string",
          "name": "operationType",
          "type": "string"
        }
      ],
      "name": "OperationProposed",
      "type": "event"
    },
    {
      "anonymous": false,
      "inputs": [
        {
          "indexed": true,
          "internalType": "address",
          "name": "previousOwner",
          "type": "address"
        },
        {
          "indexed": true,
          "internalType": "address",
          "name": "newOwner",
          "type": "address"
        }
      ],
      "name": "OwnershipTransferred",
      "type": "event"
    },
    {
      "anonymous": false,
      "inputs": [
        {
          "indexed": false,
          "internalType": "address",
          "name": "account",
          "type": "address"
        }
      ],
      "name": "Paused",
      "type": "event"
    },
    {
      "anonymous": false,
      "inputs": [
        {
          "indexed": false,
          "internalType": "uint256",
          "name": "newDiscountPercent",
          "type": "uint256"
        },
        {
          "indexed": false,
          "internalType": "uint256",
          "name": "newLockPeriod",
          "type": "uint256"
        },
        {
          "indexed": true,
          "internalType": "address",
          "name": "updatedBy",
          "type": "address"
        }
      ],
      "name": "SecurityParametersUpdated",
      "type": "event"
    },
    {
      "anonymous": false,
      "inputs": [
        {
          "indexed": true,
          "internalType": "address",
          "name": "user",
          "type": "address"
        },
        {
          "indexed": false,
          "internalType": "uint256",
          "name": "amount",
          "type": "uint256"
        },
        {
          "indexed": false,
          "internalType": "uint256",
          "name": "unlockTime",
          "type": "uint256"
        }
      ],
      "name": "Staked",
      "type": "event"
    },
    {
      "anonymous": false,
      "inputs": [
        {
          "indexed": false,
          "internalType": "address",
          "name": "account",
          "type": "address"
        }
      ],
      "name": "Unpaused",
      "type": "event"
    },
    {
      "anonymous": false,
      "inputs": [
        {
          "indexed": true,
          "internalType": "address",
          "name": "user",
          "type": "address"
        },
        {
          "indexed": false,
          "internalType": "uint256",
          "name": "amount",
          "type": "uint256"
        }
      ],
      "name": "Unstaked",
      "type": "event"
    },
    {
      "anonymous": false,
      "inputs": [
        {
          "indexed": true,
          "internalType": "address",
          "name": "implementation",
          "type": "address"
        }
      ],
      "name": "Upgraded",
      "type": "event"
    },
    {
      "inputs": [],
      "name": "EMERGENCY_WITHDRAWAL_DELAY",
      "outputs": [
        {
          "internalType": "uint256",
          "name": "",
          "type": "uint256"
        }
      ],
      "stateMutability": "view",
      "type": "function"
    },
    {
      "inputs": [],
      "name": "LOCK_PERIOD",
      "outputs": [
        {
          "internalType": "uint256",
          "name": "",
          "type": "uint256"
        }
      ],
      "stateMutability": "view",
      "type": "function"
    },
    {
      "inputs": [],
      "name": "MAX_DISCOUNT_PERCENT",
      "outputs": [
        {
          "internalType": "uint256",
          "name": "",
          "type": "uint256"
        }
      ],
      "stateMutability": "view",
      "type": "function"
    },
    {
      "inputs": [],
      "name": "REQUIRED_STAKE_AMOUNT",
      "outputs": [
        {
          "internalType": "uint256",
          "name": "",
          "type": "uint256"
        }
      ],
      "stateMutability": "view",
      "type": "function"
    },
    {
      "inputs": [],
      "name": "TIMELOCK_DELAY",
      "outputs": [
        {
          "internalType": "uint256",
          "name": "",
          "type": "uint256"
        }
      ],
      "stateMutability": "view",
      "type": "function"
    },
    {
      "inputs": [],
      "name": "UPGRADE_INTERFACE_VERSION",
      "outputs": [
        {
          "internalType": "string",
          "name": "",
          "type": "string"
        }
      ],
      "stateMutability": "view",
      "type": "function"
    },
    {
      "inputs": [],
      "name": "activateEmergencyMode",
      "outputs": [],
      "stateMutability": "nonpayable",
      "type": "function"
    },
    {
      "inputs": [
        {
          "internalType": "address[]",
          "name": "users",
          "type": "address[]"
        },
        {
          "internalType": "uint256[]",
          "name": "amounts",
          "type": "uint256[]"
        }
      ],
      "name": "batchStake",
      "outputs": [],
      "stateMutability": "nonpayable",
      "type": "function"
    },
    {
      "inputs": [
        {
          "internalType": "address[]",
          "name": "users",
          "type": "address[]"
        }
      ],
      "name": "batchUnstake",
      "outputs": [],
      "stateMutability": "nonpayable",
      "type": "function"
    },
    {
      "inputs": [
        {
          "internalType": "address",
          "name": "user",
          "type": "address"
        }
      ],
      "name": "blacklistAddress",
      "outputs": [],
      "stateMutability": "nonpayable",
      "type": "function"
    },
    {
      "inputs": [
        {
          "internalType": "address",
          "name": "",
          "type": "address"
        }
      ],
      "name": "blacklistedAddresses",
      "outputs": [
        {
          "internalType": "bool",
          "name": "",
          "type": "bool"
        }
      ],
      "stateMutability": "view",
      "type": "function"
    },
    {
      "inputs": [
        {
          "internalType": "bytes32",
          "name": "operationHash",
          "type": "bytes32"
        }
      ],
      "name": "confirmOperation",
      "outputs": [],
      "stateMutability": "nonpayable",
      "type": "function"
    },
    {
      "inputs": [
        {
          "internalType": "bytes32",
          "name": "",
          "type": "bytes32"
        },
        {
          "internalType": "address",
          "name": "",
          "type": "address"
        }
      ],
      "name": "confirmations",
      "outputs": [
        {
          "internalType": "bool",
          "name": "",
          "type": "bool"
        }
      ],
      "stateMutability": "view",
      "type": "function"
    },
    {
      "inputs": [],
      "name": "deactivateEmergencyMode",
      "outputs": [],
      "stateMutability": "nonpayable",
      "type": "function"
    },
    {
      "inputs": [],
      "name": "discountPercent",
      "outputs": [
        {
          "internalType": "uint256",
          "name": "",
          "type": "uint256"
        }
      ],
      "stateMutability": "view",
      "type": "function"
    },
    {
      "inputs": [],
      "name": "emergencyMode",
      "outputs": [
        {
          "internalType": "bool",
          "name": "",
          "type": "bool"
        }
      ],
      "stateMutability": "view",
      "type": "function"
    },
    {
      "inputs": [
        {
          "internalType": "address",
          "name": "to",
          "type": "address"
        }
      ],
      "name": "emergencyRecoverTokens",
      "outputs": [],
      "stateMutability": "nonpayable",
      "type": "function"
    },
    {
      "inputs": [],
      "name": "emergencyWithdrawalRequestTime",
      "outputs": [
        {
          "internalType": "uint256",
          "name": "",
          "type": "uint256"
        }
      ],
      "stateMutability": "view",
      "type": "function"
    },
    {
      "inputs": [],
      "name": "emergencyWithdrawalRequestor",
      "outputs": [
        {
          "internalType": "address",
          "name": "",
          "type": "address"
        }
      ],
      "stateMutability": "view",
      "type": "function"
    },
    {
      "inputs": [],
      "name": "executeEmergencyWithdrawal",
      "outputs": [],
      "stateMutability": "nonpayable",
      "type": "function"
    },
    {
      "inputs": [],
      "name": "getCurrentDiscountPercent",
      "outputs": [
        {
          "internalType": "uint256",
          "name": "",
          "type": "uint256"
        }
      ],
      "stateMutability": "view",
      "type": "function"
    },
    {
      "inputs": [
        {
          "internalType": "address",
          "name": "user",
          "type": "address"
        }
      ],
      "name": "getDiscountPercentage",
      "outputs": [
        {
          "internalType": "uint256",
          "name": "",
          "type": "uint256"
        }
      ],
      "stateMutability": "view",
      "type": "function"
    },
    {
      "inputs": [],
      "name": "getEmergencyStatus",
      "outputs": [
        {
          "internalType": "bool",
          "name": "",
          "type": "bool"
        },
        {
          "internalType": "uint256",
          "name": "",
          "type": "uint256"
        },
        {
          "internalType": "address",
          "name": "",
          "type": "address"
        }
      ],
      "stateMutability": "view",
      "type": "function"
    },
    {
      "inputs": [],
      "name": "getGovernanceContract",
      "outputs": [
        {
          "internalType": "address",
          "name": "",
          "type": "address"
        }
      ],
      "stateMutability": "view",
      "type": "function"
    },
    {
      "inputs": [],
      "name": "getOwner",
      "outputs": [
        {
          "internalType": "address",
          "name": "",
          "type": "address"
        }
      ],
      "stateMutability": "view",
      "type": "function"
    },
    {
      "inputs": [],
      "name": "getTotalStakedAmount",
      "outputs": [
        {
          "internalType": "uint256",
          "name": "",
          "type": "uint256"
        }
      ],
      "stateMutability": "view",
      "type": "function"
    },
    {
      "inputs": [],
      "name": "getTotalStakers",
      "outputs": [
        {
          "internalType": "uint256",
          "name": "",
          "type": "uint256"
        }
      ],
      "stateMutability": "view",
      "type": "function"
    },
    {
      "inputs": [
        {
          "internalType": "address",
          "name": "user",
          "type": "address"
        }
      ],
      "name": "getUserStakeInfo",
      "outputs": [
        {
          "internalType": "uint256",
          "name": "amount",
          "type": "uint256"
        },
        {
          "internalType": "uint256",
          "name": "unlockTime",
          "type": "uint256"
        },
        {
          "internalType": "bool",
          "name": "hasStaked",
          "type": "bool"
        },
        {
          "internalType": "uint256",
          "name": "stakeTime",
          "type": "uint256"
        },
        {
          "internalType": "bool",
          "name": "isActive",
          "type": "bool"
        }
      ],
      "stateMutability": "view",
      "type": "function"
    },
    {
      "inputs": [],
      "name": "governanceContract",
      "outputs": [
        {
          "internalType": "address",
          "name": "",
          "type": "address"
        }
      ],
      "stateMutability": "view",
      "type": "function"
    },
    {
      "inputs": [
        {
          "internalType": "address",
          "name": "user",
          "type": "address"
        }
      ],
      "name": "hasActiveStake",
      "outputs": [
        {
          "internalType": "bool",
          "name": "",
          "type": "bool"
        }
      ],
      "stateMutability": "view",
      "type": "function"
    },
    {
      "inputs": [
        {
          "internalType": "bytes32",
          "name": "",
          "type": "bytes32"
        },
        {
          "internalType": "address",
          "name": "",
          "type": "address"
        }
      ],
      "name": "hasConfirmed",
      "outputs": [
        {
          "internalType": "bool",
          "name": "",
          "type": "bool"
        }
      ],
      "stateMutability": "view",
      "type": "function"
    },
    {
      "inputs": [
        {
          "internalType": "address",
          "name": "initialOwner",
          "type": "address"
        }
      ],
      "name": "initialize",
      "outputs": [],
      "stateMutability": "nonpayable",
      "type": "function"
    },
    {
      "inputs": [
        {
          "internalType": "address",
          "name": "newOwner",
          "type": "address"
        }
      ],
      "name": "initiateOwnershipTransfer",
      "outputs": [],
      "stateMutability": "nonpayable",
      "type": "function"
    },
    {
      "inputs": [
        {
          "internalType": "address",
          "name": "user",
          "type": "address"
        }
      ],
      "name": "isBlacklisted",
      "outputs": [
        {
          "internalType": "bool",
          "name": "",
          "type": "bool"
        }
      ],
      "stateMutability": "view",
      "type": "function"
    },
    {
      "inputs": [
        {
          "internalType": "bytes32",
          "name": "",
          "type": "bytes32"
        }
      ],
      "name": "operations",
      "outputs": [
        {
          "internalType": "enum Staking.OperationType",
          "name": "operationType",
          "type": "uint8"
        },
        {
          "internalType": "address",
          "name": "target",
          "type": "address"
        },
        {
          "internalType": "uint256",
          "name": "value",
          "type": "uint256"
        },
        {
          "internalType": "bool",
          "name": "executed",
          "type": "bool"
        },
        {
          "internalType": "uint256",
          "name": "numConfirmations",
          "type": "uint256"
        },
        {
          "internalType": "uint256",
          "name": "proposedTime",
          "type": "uint256"
        }
      ],
      "stateMutability": "view",
      "type": "function"
    },
    {
      "inputs": [
        {
          "internalType": "address",
          "name": "",
          "type": "address"
        }
      ],
      "name": "optimizedStakes",
      "outputs": [
        {
          "internalType": "uint96",
          "name": "amount",
          "type": "uint96"
        },
        {
          "internalType": "uint64",
          "name": "unlockTime",
          "type": "uint64"
        },
        {
          "internalType": "bool",
          "name": "hasStaked",
          "type": "bool"
        },
        {
          "internalType": "uint64",
          "name": "stakeTime",
          "type": "uint64"
        },
        {
          "internalType": "bool",
          "name": "isActive",
          "type": "bool"
        }
      ],
      "stateMutability": "view",
      "type": "function"
    },
    {
      "inputs": [],
      "name": "owner",
      "outputs": [
        {
          "internalType": "address",
          "name": "",
          "type": "address"
        }
      ],
      "stateMutability": "view",
      "type": "function"
    },
    {
      "inputs": [],
      "name": "pause",
      "outputs": [],
      "stateMutability": "nonpayable",
      "type": "function"
    },
    {
      "inputs": [],
      "name": "paused",
      "outputs": [
        {
          "internalType": "bool",
          "name": "",
          "type": "bool"
        }
      ],
      "stateMutability": "view",
      "type": "function"
    },
    {
      "inputs": [
        {
          "internalType": "enum Staking.OperationType",
          "name": "operationType",
          "type": "uint8"
        },
        {
          "internalType": "address",
          "name": "target",
          "type": "address"
        },
        {
          "internalType": "uint256",
          "name": "value",
          "type": "uint256"
        }
      ],
      "name": "proposeOperation",
      "outputs": [],
      "stateMutability": "nonpayable",
      "type": "function"
    },
    {
      "inputs": [],
      "name": "proxiableUUID",
      "outputs": [
        {
          "internalType": "bytes32",
          "name": "",
          "type": "bytes32"
        }
      ],
      "stateMutability": "view",
      "type": "function"
    },
    {
      "inputs": [],
      "name": "renounceOwnership",
      "outputs": [],
      "stateMutability": "nonpayable",
      "type": "function"
    },
    {
      "inputs": [],
      "name": "requestEmergencyWithdrawal",
      "outputs": [],
      "stateMutability": "nonpayable",
      "type": "function"
    },
    {
      "inputs": [],
      "name": "requiredConfirmations",
      "outputs": [
        {
          "internalType": "uint256",
          "name": "",
          "type": "uint256"
        }
      ],
      "stateMutability": "view",
      "type": "function"
    },
    {
      "inputs": [
        {
          "internalType": "uint256",
          "name": "newPercent",
          "type": "uint256"
        }
      ],
      "name": "setDiscountPercent",
      "outputs": [],
      "stateMutability": "nonpayable",
      "type": "function"
    },
    {
      "inputs": [
        {
          "internalType": "address",
          "name": "_gov",
          "type": "address"
        }
      ],
      "name": "setGovernanceContract",
      "outputs": [],
      "stateMutability": "nonpayable",
      "type": "function"
    },
    {
      "inputs": [],
      "name": "stake",
      "outputs": [],
      "stateMutability": "payable",
      "type": "function"
    },
    {
      "inputs": [
        {
          "internalType": "address",
          "name": "",
          "type": "address"
        }
      ],
      "name": "stakes",
      "outputs": [
        {
          "internalType": "uint256",
          "name": "amount",
          "type": "uint256"
        },
        {
          "internalType": "uint256",
          "name": "unlockTime",
          "type": "uint256"
        },
        {
          "internalType": "bool",
          "name": "hasStaked",
          "type": "bool"
        },
        {
          "internalType": "uint256",
          "name": "stakeTime",
          "type": "uint256"
        },
        {
          "internalType": "bool",
          "name": "isActive",
          "type": "bool"
        }
      ],
      "stateMutability": "view",
      "type": "function"
    },
    {
      "inputs": [
        {
          "internalType": "bytes32",
          "name": "",
          "type": "bytes32"
        }
      ],
      "name": "timelockExecutionTime",
      "outputs": [
        {
          "internalType": "uint256",
          "name": "",
          "type": "uint256"
        }
      ],
      "stateMutability": "view",
      "type": "function"
    },
    {
      "inputs": [],
      "name": "totalStakedAmount",
      "outputs": [
        {
          "internalType": "uint256",
          "name": "",
          "type": "uint256"
        }
      ],
      "stateMutability": "view",
      "type": "function"
    },
    {
      "inputs": [],
      "name": "totalStakers",
      "outputs": [
        {
          "internalType": "uint256",
          "name": "",
          "type": "uint256"
        }
      ],
      "stateMutability": "view",
      "type": "function"
    },
    {
      "inputs": [
        {
          "internalType": "address",
          "name": "newOwner",
          "type": "address"
        }
      ],
      "name": "transferOwnership",
      "outputs": [],
      "stateMutability": "nonpayable",
      "type": "function"
    },
    {
      "inputs": [
        {
          "internalType": "address",
          "name": "user",
          "type": "address"
        }
      ],
      "name": "unblacklistAddress",
      "outputs": [],
      "stateMutability": "nonpayable",
      "type": "function"
    },
    {
      "inputs": [],
      "name": "unpause",
      "outputs": [],
      "stateMutability": "nonpayable",
      "type": "function"
    },
    {
      "inputs": [],
      "name": "unstake",
      "outputs": [],
      "stateMutability": "nonpayable",
      "type": "function"
    },
    {
      "inputs": [
        {
          "internalType": "address",
          "name": "newImplementation",
          "type": "address"
        },
        {
          "internalType": "bytes",
          "name": "data",
          "type": "bytes"
        }
      ],
      "name": "upgradeToAndCall",
      "outputs": [],
      "stateMutability": "payable",
      "type": "function"
    }
  ],
  "bytecode": "0x60a0806040523460295730608052612a86908161002f823960805181818161142001526114f30152f35b600080fdfe608080604052600436101561001357600080fd5b60003560e01c9081630905f560146121d4575080630c4ecab4146121875780631129753f146120d95780631380db8e14612058578063154ec2db1461202c57806316934fc414610a925780631820cabb1461200f5780631dd9546914611f0757806329ef1919146105de5780632def662014611c9e57806331ed0db414610eb957806332b95a6f14611a2b57806338adb6f0146113ef5780633a4b66f1146117785780633f4ba83a146116f557806345e349491461168f5780634f1ef2861461147757806352d1902d1461140d578063567e98f9146113ef5780635ba1c1a914610b165780635c975abb146113bf57806369486d2914611365578063715018a6146112fb5780637167061b14610fae578063757fbc3714610f855780638204515714610f6957806382e717f714610f4b5780638456cb5914610ed75780638698903814610eb9578063893d20e814610e835780638da5cb5b14610e8357806399b20eaf14610e62578063ad3cb1cc14610e23578063b172b222146105b5578063b22855dc14610c1a578063b4e42ae214610bef578063c0b6f56114610b68578063c2cf732614610b1b578063c2f1cac014610b16578063c32d3ae214610a92578063c4d66de8146108b7578063c74f349b14610825578063caa7c8aa146107cc578063d0096010146107ab578063d39d5efc1461078d578063d5749d4214610287578063d9cbd3281461061f578063e00729f0146105fc578063e3524d36146105de578063ef2fa85f146105b5578063f042d96914610589578063f2fde38b14610560578063f3290d7514610535578063f4993bbd14610307578063fa37273c146102cb5763fe575a871461028757600080fd5b346102c65760203660031901126102c6576001600160a01b036102a861220a565b166000526008602052602060ff604060002054166040519015158152f35b600080fd5b346102c65760003660031901126102c657606060ff6003541660045460018060a01b036005541690604051921515835260208301526040820152f35b346102c65760003660031901126102c657600d546001600160a01b0316338190036104fe576004546201518081018091116104e85742106104b3576005546001600160a01b0381161561047f5760ff6003541615610442574791821561040657600080848194938294836004556001600160601b0360a01b166005555af161038d612396565b50156103c1576040519081527faf6e7d750e5a786a0b4d0e00806a5f778d09769d9c8c0ee377cc6df72af0711560203392a2005b60405162461bcd60e51b815260206004820152601b60248201527f456d657267656e6379207769746864726177616c206661696c656400000000006044820152606490fd5b60405162461bcd60e51b81526020600482015260146024820152734e6f2066756e647320746f20776974686472617760601b6044820152606490fd5b60405162461bcd60e51b81526020600482015260156024820152744e6f7420696e20656d657267656e6379206d6f646560581b6044820152606490fd5b60405162461bcd60e51b815260206004820152600c60248201526b2737903932b8bab2b9ba37b960a11b6044820152606490fd5b60405162461bcd60e51b815260206004820152600d60248201526c11195b185e481b9bdd081b595d609a1b6044820152606490fd5b634e487b7160e01b600052601160045260246000fd5b60405162461bcd60e51b815260206004820152600f60248201526e4f6e6c7920676f7665726e616e636560881b6044820152606490fd5b346102c65760203660031901126102c65761055e61055161220a565b610559612716565b612633565b005b346102c65760203660031901126102c65761055e61057c61220a565b610584612716565b612603565b346102c65760203660031901126102c65760043560005260066020526020604060002054604051908152f35b346102c65760003660031901126102c657600d546040516001600160a01b039091168152602090f35b346102c65760003660031901126102c6576020600054604051908152f35b346102c65760003660031901126102c657602060405167016345785d8a00008152f35b346102c65760203660031901126102c6576004356001600160401b0381116102c65761064f903690600401612220565b90610658612716565b61066061274c565b60005b82811061066c57005b6001906001600160a01b0361068a610685838787612469565b6124db565b166000526007602052808460406000208560ff6002830154168061077f575b80610772575b6106be575b5050505001610663565b6000808381949361071861068560039961072999868099549c8760048f990160ff1981541690558281556001839082015501556106fc868f5461240b565b8e55610709600254612418565b6002558d8060a01b0394612469565b165af1610723612396565b50612425565b7f0f5bb82176feb1b5e747e28471aa92156a04d9f3ab9f45f28e2d704232b93f756020848060a01b03610760610685868a8a612469565b1692604051908152a2808486856106b4565b50858201544210156106af565b5060ff6004830154166106a9565b346102c65760003660031901126102c6576020600454604051908152f35b346102c65760003660031901126102c6576107c4612716565b61055e6125ce565b346102c65760003660031901126102c6576107e5612716565b42600455336001600160601b0360a01b6005541617600555337f4591104d7f5e68bb75c1de891509be6bc36be5716ac7c0f176e2b89237b5a4a7600080a2005b346102c65760203660031901126102c657600435600052600b6020526040600020805460ff81169160018101549060ff60028201541660046003830154920154926040519460048710156108a15760c096865260018060a01b039060081c166020860152604085015215156060840152608083015260a0820152f35b634e487b7160e01b600052602160045260246000fd5b346102c65760203660031901126102c6576108d061220a565b600080516020612a31833981519152549060ff8260401c1615916001600160401b03811680159081610a8a575b6001149081610a80575b159081610a77575b50610a665767ffffffffffffffff198116600117600080516020612a318339815191525582610a39575b50610942612921565b61094a612921565b6001600080516020612a1183398151915255610964612921565b61096c612921565b61097581612603565b61097d612921565b610985612921565b6001600160a01b0316156109fc5760146000556002600a556109a357005b68ff000000000000000019600080516020612a318339815191525416600080516020612a31833981519152557fc7f505b2f371ae2175ee4913f4499e1f2633a7b5936321eed1cdaeb6115181d2602060405160018152a1005b60405162461bcd60e51b8152602060048201526015602482015274496e76616c6964206f776e6572206164647265737360581b6044820152606490fd5b68ffffffffffffffffff19166801000000000000000117600080516020612a318339815191525582610939565b63f92ee8a960e01b60005260046000fd5b9050158461090f565b303b159150610907565b8491506108fd565b346102c65760203660031901126102c6576001600160a01b03610ab361220a565b16600052600760205260406000208054610b1260018301549260ff6002820154169060ff6004600383015492015416916040519586958693909594919260809360a0860197865260208601521515604085015260608401521515910152565b0390f35b6122bd565b346102c65760403660031901126102c657610b346121f4565b600435600052600c60205260406000209060018060a01b0316600052602052602060ff604060002054166040519015158152f35b346102c65760203660031901126102c657610b8161220a565b610b89612716565b60405160208101917105452414e534645525f4f574e4552534849560741b83526001600160601b03199060601b16603282015260268152610bcb604682612281565b519020620151804201908142116104e8576000526006602052604060002055600080f35b346102c65760203660031901126102c6576020610c12610c0d61220a565b612589565b604051908152f35b346102c65760603660031901126102c65760043560048110156102c657610c3f6121f4565b90604435610c4b612716565b60405191602083016000938260f81b82526001600160601b03198660601b16602182015283603582015242605582015260558152610c8a607582612281565b51902092838152600b6020526004604082200154610dde576040519060c082018281106001600160401b03821117610dca5760405250818152602081019460018060a01b0316855260408101928352606081019260008452608082016001815260a083019042825286600052600b6020526040600020935160048110156108a157610d9396600494610d629260009b60ff895491610100600160a81b03905160081b169216906affffffffffffffffffffff60a81b1617178755516001870155511515600286019060ff801983541691151516179055565b51600384015551910155828452600c602090815260408086203387529091528420805460ff19166001179055612808565b907f9aa6a0f678138a9a8dc205a0280f1ac65f1719ed4652a0d65d029f352dacd91960405180610dc43395826122db565b0390a380f35b634e487b7160e01b82526041600452602482fd5b60405162461bcd60e51b815260206004820152601860248201527f4f7065726174696f6e20616c72656164792065786973747300000000000000006044820152606490fd5b346102c65760003660031901126102c657610b126040805190610e468183612281565b60058252640352e302e360dc1b602083015251918291826122db565b346102c65760003660031901126102c657610e7b612716565b61055e612557565b346102c65760003660031901126102c6576000805160206129b1833981519152546040516001600160a01b039091168152602090f35b346102c65760003660031901126102c6576020600254604051908152f35b346102c65760003660031901126102c657610ef0612716565b610ef861274c565b600160ff196000805160206129f18339815191525416176000805160206129f1833981519152557f62e78cea01bee320cd4e420270b5ea74000d11b0c9f74754ebdbfc544b05a2586020604051338152a1005b346102c65760003660031901126102c6576020600a54604051908152f35b346102c65760003660031901126102c657602060405160148152f35b346102c65760003660031901126102c6576005546040516001600160a01b039091168152602090f35b346102c65760203660031901126102c657600435610fca612716565b80600052600b6020526040600020600481015480156112b65760ff600283015416611271576000838152600c6020908152604080832033845290915290205460ff16611238576201518081018091116104e85742116111ff576003018054600181018091116104e85781556000828152600c60209081526040808320338085529252808320805460ff1916600117905551929184907f419a6fc41d52acdad28534c22b03d6afae3112f8df9e0f4e33df71a87a1e830a9080a354600a548091101561109157005b82600052600b602052604060002091600283019182549160ff83166111ca57506003840154106111855760ff19166001179055805460ff811660048110156108a15780611117575050546110f09060081c6001600160a01b03166127b2565b7f1277662f4b42b8a4069e99fb5e41ce8919d3c621156090ac08fb11adbcec66f9600080a2005b60018103611133575050600161112e910154612324565b6110f0565b6002810361115957505060010154600019016111515761112e6125ce565b61112e612557565b60039192501461116a575b506110f0565b61117f9060081c6001600160a01b0316612633565b81611164565b60405162461bcd60e51b815260206004820152601860248201527f4e6f7420656e6f75676820636f6e6669726d6174696f6e7300000000000000006044820152606490fd5b62461bcd60e51b815260206004820152601060248201526f105b1c9958591e48195e1958dd5d195960821b6044820152606490fd5b60405162461bcd60e51b815260206004820152601160248201527013dc195c985d1a5bdb88195e1c1a5c9959607a1b6044820152606490fd5b60405162461bcd60e51b8152602060048201526011602482015270105b1c9958591e4818dbdb999a5c9b5959607a1b6044820152606490fd5b60405162461bcd60e51b815260206004820152601a60248201527f4f7065726174696f6e20616c72656164792065786563757465640000000000006044820152606490fd5b60405162461bcd60e51b815260206004820152601860248201527f4f7065726174696f6e20646f6573206e6f7420657869737400000000000000006044820152606490fd5b346102c65760003660031901126102c657611314612716565b6000805160206129b183398151915280546001600160a01b031981169091556000906001600160a01b03167f8be0079c531659141344cd1fd0a4f28419497f9722a3daafe3b4186f6b6457e08280a3005b346102c65760203660031901126102c6576001600160a01b0361138661220a565b1660005260076020526020604060002060ff60028201541690816113b0575b506040519015158152f35b60ff91506004015416826113a5565b346102c65760003660031901126102c657602060ff6000805160206129f183398151915254166040519015158152f35b346102c65760003660031901126102c6576020600154604051908152f35b346102c65760003660031901126102c6577f00000000000000000000000000000000000000000000000000000000000000006001600160a01b031630036114665760206040516000805160206129d18339815191528152f35b63703e46dd60e11b60005260046000fd5b60403660031901126102c65761148b61220a565b602435906001600160401b0382116102c657366023830112156102c6578160040135906114b7826122a2565b916114c56040519384612281565b808352602083019336602483830101116102c657816000926024602093018737840101526001600160a01b037f00000000000000000000000000000000000000000000000000000000000000001630811490811561166c575b506114665761152b612716565b6040516352d1902d60e01b81526001600160a01b0382169390602081600481885afa60009181611638575b506115705784634c9c8ce360e01b60005260045260246000fd5b806000805160206129d18339815191528692036116245750823b15611610576000805160206129d183398151915280546001600160a01b031916821790557fbc7cd75a20ee27fd9adebab32041f755214dbc6bffa90cc0225b39da2e5c2d3b600080a28251156115f5576000809161055e945190845af46115ef612396565b9161294f565b505050346115ff57005b63b398979f60e01b60005260046000fd5b634c9c8ce360e01b60005260045260246000fd5b632a87526960e21b60005260045260246000fd5b9091506020813d602011611664575b8161165460209383612281565b810103126102c657519086611556565b3d9150611647565b6000805160206129d1833981519152546001600160a01b0316141590508461151e565b346102c65760203660031901126102c6576116a861220a565b6116b0612716565b6001600160a01b03166000818152600860205260408120805460ff191690557fb2aa8f2cce614e8fceaca560dbaf2a8ed3083e4ab371b10bf6d02e359216767a9080a2005b346102c65760003660031901126102c65761170e612716565b6000805160206129f18339815191525460ff8116156117675760ff19166000805160206129f1833981519152557f5db9ee0a495bf2e6ff9c91a7834c1ba4fdd244a5e8aa4e537bd38aeae4b073aa6020604051338152a1005b638dfc202b60e01b60005260046000fd5b60003660031901126102c65761178c612776565b61179461274c565b60ff600354166119e6573360005260086020526117b960ff60406000205416156123c6565b6117cc67016345785d8a0000341461248f565b33600052600e6020526117ea60ff60406000205460e81c16156124ef565b612a3042018042116104e8576001600160401b03166118f460405161180e81612250565b6001600160601b0334168152602081018381526118d96001600160401b0360408401600181526060850190824216825261189f8360808801966001885233600052600e6020526001600160601b038060406000209a5116166001600160601b03198a5416178955511687908154906001600160401b0360601b9060601b16906001600160401b0360601b1916179055565b518554915168ffffffffffffffffff60a01b1990921690151560a01b60ff60a01b1617911660a81b67ffffffffffffffff60a81b16178355565b51815460ff60e81b191690151560e81b60ff60e81b16179055565b61197760405161190381612250565b348152600460208201848152604083016001815261195b6060850191428352608086019360018552336000526007602052604060002096518755516001870155511515600286019060ff801983541691151516179055565b51600384015551151591019060ff801983541691151516179055565b6119833460015461253b565b600155611991600254612548565b600255604080513481526001600160401b0392909216602083015233917f1449c6dd7851abc30abf37f57715f492010519147cc2652fbc38202c18a6ee909190a26001600080516020612a1183398151915255005b60405162461bcd60e51b815260206004820152601d60248201527f436f6e747261637420697320696e20656d657267656e6379206d6f64650000006044820152606490fd5b346102c65760403660031901126102c6576004356001600160401b0381116102c657611a5b903690600401612220565b906024356001600160401b0381116102c657611a7b903690600401612220565b92611a84612716565b611a8c61274c565b838103611c615760006001600160401b03421693612a304201946001600160401b038642119616925b848110611abe57005b611adc67016345785d8a0000611ad5838b8a612469565b351461248f565b6001600160a01b03611af2610685838887612469565b16600052600e60205286611b1160ff60406000205460e81c16156124ef565b6104e85780611bc86001600160601b03611b2e6001948c8b612469565b351660405190611b3d82612250565b8152876118d96001600160401b03602084018a81526040850188815261189f8360608801938c85528d611b836106858d60808d019b60018d5260018060a01b0394612469565b166000908152600e602052604090209851895491516001600160a01b03199092166001600160601b039190911617911660601b67ffffffffffffffff60601b16178755565b611bde611bd6828b8a612469565b35835461253b565b8255611beb600254612548565b600255611bfc610685828887612469565b7f1449c6dd7851abc30abf37f57715f492010519147cc2652fbc38202c18a6ee9086611c29848d8c612469565b3592611c58604051928392888060a01b031695839092916001600160401b036020916040840195845216910152565b0390a201611ab5565b60405162461bcd60e51b8152602060048201526015602482015274082e4e4c2f240d8cadccee8d040dad2e6dac2e8c6d605b1b6044820152606490fd5b346102c65760003660031901126102c657611cb7612776565b611cbf61274c565b336000526008602052611cda60ff60406000205416156123c6565b336000526007602052604060002060ff60028201541615611ed157600481019081549160ff831615611e9957600182019182544210611e5f578054938415611e235760ff1916909155600080825591829055600301819055338152600e6020526040902080547fffff000000000000000000ff0000000000000000000000000000000000000000169055600154611d7290829061240b565b600155611d80600254612418565b600255804710611dde57611d9e600080808085335af1610723612396565b6040519081527f0f5bb82176feb1b5e747e28471aa92156a04d9f3ab9f45f28e2d704232b93f7560203392a26001600080516020612a1183398151915255005b60405162461bcd60e51b815260206004820152601d60248201527f496e73756666696369656e7420636f6e74726163742062616c616e63650000006044820152606490fd5b60405162461bcd60e51b8152602060048201526014602482015273125b9d985b1a59081cdd185ad948185b5bdd5b9d60621b6044820152606490fd5b60405162461bcd60e51b815260206004820152601260248201527114dd185ad9481cdd1a5b1b081b1bd8dad95960721b6044820152606490fd5b60405162461bcd60e51b815260206004820152601060248201526f5374616b65206e6f742061637469766560801b6044820152606490fd5b60405162461bcd60e51b815260206004820152600e60248201526d139bc81cdd185ad948199bdd5b9960921b6044820152606490fd5b346102c65760203660031901126102c657611f2061220a565b611f28612716565b6001600160a01b03168015611fca5747908115611f8f57600080809381935af1611f50612396565b5015611f5857005b60405162461bcd60e51b815260206004820152600f60248201526e151c985b9cd9995c8819985a5b1959608a1b6044820152606490fd5b60405162461bcd60e51b8152602060048201526013602482015272273790333ab73239903a37903932b1b7bb32b960691b6044820152606490fd5b60405162461bcd60e51b815260206004820152601960248201527f496e76616c696420726563697069656e742061646472657373000000000000006044820152606490fd5b346102c65760003660031901126102c6576020604051612a308152f35b346102c65760203660031901126102c657612045612716565b61204d61274c565b61055e600435612324565b346102c65760203660031901126102c6576001600160a01b0361207961220a565b16600052600e60205260a060406000205460ff604051916001600160601b03811683526001600160401b038160601c1660208401528181851c16151560408401526001600160401b038160a81c16606084015260e81c1615156080820152f35b346102c65760203660031901126102c6576120f261220a565b6120fa612716565b6001600160a01b0316801561214257600d80546001600160a01b031916821790557f2bf79e6c54fa8159bd63e520bd2627b8c9f7bba4561d8844d1f0eeb9f5684f73600080a2005b60405162461bcd60e51b815260206004820152601b60248201527f496e76616c696420676f7665726e616e636520636f6e747261637400000000006044820152606490fd5b346102c65760403660031901126102c6576121a06121f4565b600435600052600960205260406000209060018060a01b0316600052602052602060ff604060002054166040519015158152f35b346102c65760003660031901126102c65760209060ff6003541615158152f35b602435906001600160a01b03821682036102c657565b600435906001600160a01b03821682036102c657565b9181601f840112156102c6578235916001600160401b0383116102c6576020808501948460051b0101116102c657565b60a081019081106001600160401b0382111761226b57604052565b634e487b7160e01b600052604160045260246000fd5b90601f801991011681019081106001600160401b0382111761226b57604052565b6001600160401b03811161226b57601f01601f191660200190565b346102c65760003660031901126102c6576020604051620151808152f35b91909160208152825180602083015260005b81811061230e575060409293506000838284010152601f8019910116010190565b80602080928701015160408286010152016122ed565b6014811161235d576020817f335e49622cce4c84ee6ac9e3ad6153dc61f3421b888268855f619eabf9b3a74192600055604051908152a1565b60405162461bcd60e51b8152602060048201526011602482015270088d2e6c6deeadce840e8dede40d0d2ced607b1b6044820152606490fd5b3d156123c1573d906123a7826122a2565b916123b56040519384612281565b82523d6000602084013e565b606090565b156123cd57565b60405162461bcd60e51b81526020600482015260166024820152751059191c995cdcc81a5cc8189b1858dadb1a5cdd195960521b6044820152606490fd5b919082039182116104e857565b80156104e8576000190190565b1561242c57565b60405162461bcd60e51b8152602060048201526015602482015274155b9cdd185ad9481c99599d5b990819985a5b1959605a1b6044820152606490fd5b91908110156124795760051b0190565b634e487b7160e01b600052603260045260246000fd5b1561249657565b60405162461bcd60e51b815260206004820152601d60248201527f4d757374207374616b652065786163746c7920302e312074434f5245320000006044820152606490fd5b356001600160a01b03811681036102c65790565b156124f657565b60405162461bcd60e51b815260206004820152601b60248201527f416c72656164792068617320616e20616374697665207374616b6500000000006044820152606490fd5b919082018092116104e857565b60001981146104e85760010190565b60ff1960035416600355337fbd95437b04432c9bbcf6d10c00e0e1cdc482151ffe5da10870858d456ee9fc23600080a2565b6001600160a01b03166000908152600760205260409020600281015460ff1690816125bf575b506125b957600090565b60005490565b60ff91506004015416386125af565b600160ff196003541617600355337f43f3e8d1092da4d3201e4d117b99bf80e75127516bc6523bd8cdb4464a923cde600080a2565b6001600160a01b0381161561261d5761261b906127b2565b565b631e4fbdf760e01b600052600060045260246000fd5b6001600160a01b031680156126df576000805160206129b1833981519152546001600160a01b031681146126a1578060005260086020526040600020600160ff198254161790557fdaf49ab9345b6cb75bcb5a7f726bff9183c34dcf5c098c385730f9fd893765f6600080a2565b60405162461bcd60e51b815260206004820152601660248201527521b0b73737ba10313630b1b5b634b9ba1037bbb732b960511b6044820152606490fd5b60405162461bcd60e51b815260206004820152600f60248201526e496e76616c6964206164647265737360881b6044820152606490fd5b6000805160206129b1833981519152546001600160a01b0316330361273757565b63118cdaa760e01b6000523360045260246000fd5b60ff6000805160206129f1833981519152541661276557565b63d93c066560e01b60005260046000fd5b6002600080516020612a1183398151915254146127a1576002600080516020612a1183398151915255565b633ee5aeb560e01b60005260046000fd5b6000805160206129b183398151915280546001600160a01b039283166001600160a01b0319821681179092559091167f8be0079c531659141344cd1fd0a4f28419497f9722a3daafe3b4186f6b6457e0600080a3565b60048110156108a15780156128f1576000600182146128bb5750600281146128895760036000911461285a5750604051612843604082612281565b60078152662ab735b737bbb760c91b602082015290565b50604051612869604082612281565b601081526f426c61636b6c6973744164647265737360801b602082015290565b50604051612898604082612281565b6013815272557064617465456d657267656e63794d6f646560681b602082015290565b505060408051906128cc9082612281565b6015815274155c19185d19511a5cd8dbdd5b9d14195c98d95b9d605a1b602082015290565b50604051612900604082612281565b601181527005472616e736665724f776e65727368697607c1b602082015290565b60ff600080516020612a318339815191525460401c161561293e57565b631afcd79f60e31b60005260046000fd5b90612975575080511561296457805190602001fd5b63d6bda27560e01b60005260046000fd5b815115806129a7575b612986575090565b639996b31560e01b60009081526001600160a01b0391909116600452602490fd5b50803b1561297e56fe9016d09d72d40fdae2fd8ceac6b6234c7706214fd39c1cd1e609a0528c199300360894a13ba1a3210667c828492db98dca3e2076cc3735a920a3ca505d382bbccd5ed15c6e187e77e9aee88184c21f4f2182ab5827cb3b7e07fbedcd63f033009b779b17422d0df92223018b32b4d1fa46e071723d6817e2486d003becc55f00f0c57e16840df040f15088dc2f81fe391c3923bec73e23a9662efc9c229c6a00a2646970667358221220ac28a5ee38c0dbc6cee1a68f8f8129a3386793894b88439a60f4c15b1cb28ef164736f6c634300081c0033",
  "linkReferences": {},
  "deployedLinkReferences": {}
}